{
  "contractName": "BatterySwap",
  "abi": [
    {
      "constant": true,
      "inputs": [
        {
          "internalType": "address",
          "name": "",
          "type": "address"
        }
      ],
      "name": "CS",
      "outputs": [
        {
          "internalType": "string",
          "name": "name",
          "type": "string"
        },
        {
          "internalType": "string",
          "name": "addres",
          "type": "string"
        },
        {
          "internalType": "address",
          "name": "account",
          "type": "address"
        },
        {
          "internalType": "uint256",
          "name": "r",
          "type": "uint256"
        },
        {
          "internalType": "uint256",
          "name": "i",
          "type": "uint256"
        },
        {
          "internalType": "uint256",
          "name": "j",
          "type": "uint256"
        },
        {
          "internalType": "bool",
          "name": "exist",
          "type": "bool"
        }
      ],
      "payable": false,
      "stateMutability": "view",
      "type": "function"
    },
    {
      "constant": true,
      "inputs": [
        {
          "internalType": "address",
          "name": "",
          "type": "address"
        }
      ],
      "name": "EV",
      "outputs": [
        {
          "internalType": "string",
          "name": "name",
          "type": "string"
        },
        {
          "internalType": "string",
          "name": "addres",
          "type": "string"
        },
        {
          "internalType": "address",
          "name": "account",
          "type": "address"
        },
        {
          "internalType": "uint256",
          "name": "idx",
          "type": "uint256"
        },
        {
          "internalType": "uint256",
          "name": "bal",
          "type": "uint256"
        },
        {
          "internalType": "bool",
          "name": "bat",
          "type": "bool"
        },
        {
          "internalType": "uint256",
          "name": "reqStatus",
          "type": "uint256"
        },
        {
          "internalType": "bool",
          "name": "exist",
          "type": "bool"
        },
        {
          "internalType": "uint256",
          "name": "balance",
          "type": "uint256"
        },
        {
          "internalType": "address",
          "name": "csowner",
          "type": "address"
        }
      ],
      "payable": false,
      "stateMutability": "view",
      "type": "function"
    },
    {
      "constant": true,
      "inputs": [],
      "name": "admin",
      "outputs": [
        {
          "internalType": "address",
          "name": "",
          "type": "address"
        }
      ],
      "payable": false,
      "stateMutability": "view",
      "type": "function"
    },
    {
      "constant": true,
      "inputs": [],
      "name": "adminDone",
      "outputs": [
        {
          "internalType": "bool",
          "name": "",
          "type": "bool"
        }
      ],
      "payable": false,
      "stateMutability": "view",
      "type": "function"
    },
    {
      "constant": true,
      "inputs": [
        {
          "internalType": "uint256",
          "name": "",
          "type": "uint256"
        }
      ],
      "name": "battery",
      "outputs": [
        {
          "internalType": "uint256",
          "name": "id",
          "type": "uint256"
        },
        {
          "internalType": "uint256",
          "name": "capacity",
          "type": "uint256"
        },
        {
          "internalType": "uint256",
          "name": "year",
          "type": "uint256"
        },
        {
          "internalType": "uint256",
          "name": "maxCycles",
          "type": "uint256"
        },
        {
          "internalType": "uint256",
          "name": "cycles",
          "type": "uint256"
        },
        {
          "internalType": "uint256",
          "name": "soc",
          "type": "uint256"
        },
        {
          "internalType": "uint256",
          "name": "soh",
          "type": "uint256"
        },
        {
          "internalType": "uint256",
          "name": "price",
          "type": "uint256"
        },
        {
          "internalType": "uint256",
          "name": "rate",
          "type": "uint256"
        },
        {
          "internalType": "address",
          "name": "owner",
          "type": "address"
        },
        {
          "internalType": "uint256",
          "name": "swapID",
          "type": "uint256"
        }
      ],
      "payable": false,
      "stateMutability": "view",
      "type": "function"
    },
    {
      "constant": true,
      "inputs": [
        {
          "internalType": "uint256",
          "name": "",
          "type": "uint256"
        }
      ],
      "name": "station",
      "outputs": [
        {
          "internalType": "address",
          "name": "",
          "type": "address"
        }
      ],
      "payable": false,
      "stateMutability": "view",
      "type": "function"
    },
    {
      "constant": true,
      "inputs": [
        {
          "internalType": "address",
          "name": "x",
          "type": "address"
        }
      ],
      "name": "batExists",
      "outputs": [
        {
          "internalType": "bool",
          "name": "",
          "type": "bool"
        }
      ],
      "payable": false,
      "stateMutability": "view",
      "type": "function"
    },
    {
      "constant": true,
      "inputs": [
        {
          "internalType": "address",
          "name": "x",
          "type": "address"
        }
      ],
      "name": "userExists",
      "outputs": [
        {
          "internalType": "bool",
          "name": "",
          "type": "bool"
        }
      ],
      "payable": false,
      "stateMutability": "view",
      "type": "function"
    },
    {
      "constant": true,
      "inputs": [
        {
          "internalType": "address",
          "name": "x",
          "type": "address"
        }
      ],
      "name": "CSExists",
      "outputs": [
        {
          "internalType": "bool",
          "name": "",
          "type": "bool"
        }
      ],
      "payable": false,
      "stateMutability": "view",
      "type": "function"
    },
    {
      "constant": false,
      "inputs": [
        {
          "internalType": "string",
          "name": "nname",
          "type": "string"
        },
        {
          "internalType": "string",
          "name": "aaddress",
          "type": "string"
        }
      ],
      "name": "makeadmin",
      "outputs": [
        {
          "internalType": "bool",
          "name": "",
          "type": "bool"
        }
      ],
      "payable": false,
      "stateMutability": "nonpayable",
      "type": "function"
    },
    {
      "constant": false,
      "inputs": [
        {
          "internalType": "string",
          "name": "nname",
          "type": "string"
        },
        {
          "internalType": "string",
          "name": "aaddress",
          "type": "string"
        }
      ],
      "name": "makeCS",
      "outputs": [
        {
          "internalType": "bool",
          "name": "",
          "type": "bool"
        }
      ],
      "payable": false,
      "stateMutability": "nonpayable",
      "type": "function"
    },
    {
      "constant": false,
      "inputs": [
        {
          "internalType": "uint256",
          "name": "idd",
          "type": "uint256"
        },
        {
          "internalType": "uint256",
          "name": "yyear",
          "type": "uint256"
        },
        {
          "internalType": "uint256",
          "name": "ccap",
          "type": "uint256"
        }
      ],
      "name": "registerBattery",
      "outputs": [
        {
          "internalType": "bool",
          "name": "",
          "type": "bool"
        }
      ],
      "payable": false,
      "stateMutability": "nonpayable",
      "type": "function"
    },
    {
      "constant": false,
      "inputs": [
        {
          "internalType": "uint256",
          "name": "idd",
          "type": "uint256"
        },
        {
          "internalType": "uint256",
          "name": "csoc",
          "type": "uint256"
        },
        {
          "internalType": "uint256",
          "name": "cr",
          "type": "uint256"
        },
        {
          "internalType": "address",
          "name": "add",
          "type": "address"
        }
      ],
      "name": "chargeBattery",
      "outputs": [
        {
          "internalType": "bool",
          "name": "",
          "type": "bool"
        }
      ],
      "payable": false,
      "stateMutability": "nonpayable",
      "type": "function"
    },
    {
      "constant": false,
      "inputs": [
        {
          "internalType": "uint256",
          "name": "idd",
          "type": "uint256"
        },
        {
          "internalType": "address",
          "name": "add",
          "type": "address"
        }
      ],
      "name": "dischargeBattery",
      "outputs": [
        {
          "internalType": "bool",
          "name": "",
          "type": "bool"
        }
      ],
      "payable": false,
      "stateMutability": "nonpayable",
      "type": "function"
    },
    {
      "constant": false,
      "inputs": [
        {
          "internalType": "uint256",
          "name": "idd",
          "type": "uint256"
        },
        {
          "internalType": "address",
          "name": "add",
          "type": "address"
        }
      ],
      "name": "deleteBattery",
      "outputs": [
        {
          "internalType": "bool",
          "name": "",
          "type": "bool"
        }
      ],
      "payable": false,
      "stateMutability": "nonpayable",
      "type": "function"
    },
    {
      "constant": false,
      "inputs": [],
      "name": "statList",
      "outputs": [
        {
          "internalType": "address[]",
          "name": "temp",
          "type": "address[]"
        }
      ],
      "payable": false,
      "stateMutability": "nonpayable",
      "type": "function"
    },
    {
      "constant": false,
      "inputs": [],
      "name": "statCount",
      "outputs": [
        {
          "internalType": "uint256",
          "name": "",
          "type": "uint256"
        }
      ],
      "payable": false,
      "stateMutability": "nonpayable",
      "type": "function"
    },
    {
      "constant": false,
      "inputs": [
        {
          "internalType": "address",
          "name": "s",
          "type": "address"
        }
      ],
      "name": "sendRequest",
      "outputs": [
        {
          "internalType": "bool",
          "name": "",
          "type": "bool"
        }
      ],
      "payable": false,
      "stateMutability": "nonpayable",
      "type": "function"
    },
    {
      "constant": false,
      "inputs": [
        {
          "internalType": "address",
          "name": "s",
          "type": "address"
        }
      ],
      "name": "sendStatus",
      "outputs": [
        {
          "internalType": "uint256",
          "name": "",
          "type": "uint256"
        }
      ],
      "payable": false,
      "stateMutability": "nonpayable",
      "type": "function"
    },
    {
      "constant": false,
      "inputs": [
        {
          "internalType": "address",
          "name": "s",
          "type": "address"
        }
      ],
      "name": "batList",
      "outputs": [
        {
          "internalType": "uint256[]",
          "name": "temp",
          "type": "uint256[]"
        }
      ],
      "payable": false,
      "stateMutability": "nonpayable",
      "type": "function"
    },
    {
      "constant": false,
      "inputs": [
        {
          "internalType": "address",
          "name": "s",
          "type": "address"
        }
      ],
      "name": "batCount",
      "outputs": [
        {
          "internalType": "uint256",
          "name": "",
          "type": "uint256"
        }
      ],
      "payable": false,
      "stateMutability": "nonpayable",
      "type": "function"
    },
    {
      "constant": false,
      "inputs": [
        {
          "internalType": "address",
          "name": "s",
          "type": "address"
        }
      ],
      "name": "reqList",
      "outputs": [
        {
          "internalType": "uint256[]",
          "name": "temp",
          "type": "uint256[]"
        }
      ],
      "payable": false,
      "stateMutability": "nonpayable",
      "type": "function"
    },
    {
      "constant": false,
      "inputs": [
        {
          "internalType": "address",
          "name": "s",
          "type": "address"
        }
      ],
      "name": "reqCount",
      "outputs": [
        {
          "internalType": "uint256",
          "name": "",
          "type": "uint256"
        }
      ],
      "payable": false,
      "stateMutability": "nonpayable",
      "type": "function"
    },
    {
      "constant": false,
      "inputs": [
        {
          "internalType": "uint256",
          "name": "stat",
          "type": "uint256"
        },
        {
          "internalType": "uint256",
          "name": "veh",
          "type": "uint256"
        }
      ],
      "name": "swapBat",
      "outputs": [
        {
          "internalType": "bool",
          "name": "",
          "type": "bool"
        }
      ],
      "payable": false,
      "stateMutability": "nonpayable",
      "type": "function"
    },
    {
      "constant": false,
      "inputs": [
        {
          "internalType": "uint256",
          "name": "id1",
          "type": "uint256"
        }
      ],
      "name": "reject",
      "outputs": [
        {
          "internalType": "bool",
          "name": "",
          "type": "bool"
        }
      ],
      "payable": false,
      "stateMutability": "nonpayable",
      "type": "function"
    },
    {
      "constant": false,
      "inputs": [],
      "name": "changeStatus",
      "outputs": [
        {
          "internalType": "bool",
          "name": "",
          "type": "bool"
        }
      ],
      "payable": false,
      "stateMutability": "nonpayable",
      "type": "function"
    },
    {
      "constant": false,
      "inputs": [],
      "name": "swapping",
      "outputs": [
        {
          "internalType": "bool",
          "name": "",
          "type": "bool"
        }
      ],
      "payable": false,
      "stateMutability": "nonpayable",
      "type": "function"
    }
  ],
  "bytecode": "0x608060405260008060006101000a81548160ff021916908315150217905550600060015534801561002f57600080fd5b50613da28061003f6000396000f3fe608060405234801561001057600080fd5b50600436106101a95760003560e01c806385e1b15b116100f9578063c68ce1d811610097578063d1b292c311610071578063d1b292c314610dff578063da471baf14610e98578063e7e97c4614610f4c578063f851a44014610fa4576101a9565b8063c68ce1d814610b96578063c90bc48414610c2f578063d0358b4a14610c95576101a9565b806397b731d1116100d357806397b731d114610a29578063a19db0c714610a88578063b8adaa1114610ae2578063b9877ef814610b28576101a9565b806385e1b15b146109215780639559c1101461097d5780639635b066146109d9576101a9565b80633d6de50e11610166578063695b6bca11610140578063695b6bca1461064657806369e8313d146106ac5780636ba7b3761461070857806370d45489146108c9576101a9565b80633d6de50e1461048a57806356bab37f146104ac578063620d273614610628576101a9565b8063085634ec146101ae5780630e666e49146101d05780631732cded1461022c57806321eedd651461024e5780633b00a900146102a65780633c75ac9d14610410575b600080fd5b6101b6610fee565b604051808215151515815260200191505060405180910390f35b610212600480360360208110156101e657600080fd5b81019080803573ffffffffffffffffffffffffffffffffffffffff169060200190929190505050611044565b604051808215151515815260200191505060405180910390f35b61023461109d565b604051808215151515815260200191505060405180910390f35b6102906004803603602081101561026457600080fd5b81019080803573ffffffffffffffffffffffffffffffffffffffff169060200190929190505050611b70565b6040518082815260200191505060405180910390f35b6103f6600480360360408110156102bc57600080fd5b81019080803590602001906401000000008111156102d957600080fd5b8201836020820111156102eb57600080fd5b8035906020019184600183028401116401000000008311171561030d57600080fd5b91908080601f016020809104026020016040519081016040528093929190818152602001838380828437600081840152601f19601f8201169050808301925050505050505091929192908035906020019064010000000081111561037057600080fd5b82018360208201111561038257600080fd5b803590602001918460018302840111640100000000831117156103a457600080fd5b91908080601f016020809104026020016040519081016040528093929190818152602001838380828437600081840152601f19601f820116905080830192505050505050509192919290505050611bbc565b604051808215151515815260200191505060405180910390f35b6104706004803603608081101561042657600080fd5b81019080803590602001909291908035906020019092919080359060200190929190803573ffffffffffffffffffffffffffffffffffffffff169060200190929190505050611f3a565b604051808215151515815260200191505060405180910390f35b610492612161565b604051808215151515815260200191505060405180910390f35b6104ee600480360360208110156104c257600080fd5b81019080803573ffffffffffffffffffffffffffffffffffffffff169060200190929190505050612173565b6040518080602001806020018873ffffffffffffffffffffffffffffffffffffffff1673ffffffffffffffffffffffffffffffffffffffff1681526020018781526020018681526020018581526020018415151515815260200183810383528a818151815260200191508051906020019080838360005b83811015610580578082015181840152602081019050610565565b50505050905090810190601f1680156105ad5780820380516001836020036101000a031916815260200191505b50838103825289818151815260200191508051906020019080838360005b838110156105e65780820151818401526020810190506105cb565b50505050905090810190601f1680156106135780820380516001836020036101000a031916815260200191505b50995050505050505050505060405180910390f35b610630612312565b6040518082815260200191505060405180910390f35b6106926004803603604081101561065c57600080fd5b8101908080359060200190929190803573ffffffffffffffffffffffffffffffffffffffff16906020019092919050505061231c565b604051808215151515815260200191505060405180910390f35b6106ee600480360360208110156106c257600080fd5b81019080803573ffffffffffffffffffffffffffffffffffffffff16906020019092919050505061264b565b604051808215151515815260200191505060405180910390f35b61074a6004803603602081101561071e57600080fd5b81019080803573ffffffffffffffffffffffffffffffffffffffff1690602001909291905050506126a4565b6040518080602001806020018b73ffffffffffffffffffffffffffffffffffffffff1673ffffffffffffffffffffffffffffffffffffffff1681526020018a815260200189815260200188151515158152602001878152602001861515151581526020018581526020018473ffffffffffffffffffffffffffffffffffffffff1673ffffffffffffffffffffffffffffffffffffffff16815260200183810383528d818151815260200191508051906020019080838360005b8381101561081e578082015181840152602081019050610803565b50505050905090810190601f16801561084b5780820380516001836020036101000a031916815260200191505b5083810382528c818151815260200191508051906020019080838360005b83811015610884578082015181840152602081019050610869565b50505050905090810190601f1680156108b15780820380516001836020036101000a031916815260200191505b509c5050505050505050505050505060405180910390f35b61090b600480360360208110156108df57600080fd5b81019080803573ffffffffffffffffffffffffffffffffffffffff169060200190929190505050612882565b6040518082815260200191505060405180910390f35b6109636004803603602081101561093757600080fd5b81019080803573ffffffffffffffffffffffffffffffffffffffff1690602001909291905050506128ce565b604051808215151515815260200191505060405180910390f35b6109bf6004803603602081101561099357600080fd5b81019080803573ffffffffffffffffffffffffffffffffffffffff169060200190929190505050612adc565b604051808215151515815260200191505060405180910390f35b610a0f600480360360408110156109ef57600080fd5b810190808035906020019092919080359060200190929190505050612b35565b604051808215151515815260200191505060405180910390f35b610a31612e73565b6040518080602001828103825283818151815260200191508051906020019060200280838360005b83811015610a74578082015181840152602081019050610a59565b505050509050019250505060405180910390f35b610ac860048036036060811015610a9e57600080fd5b81019080803590602001909291908035906020019092919080359060200190929190505050612f49565b604051808215151515815260200191505060405180910390f35b610b0e60048036036020811015610af857600080fd5b81019080803590602001909291905050506134dd565b604051808215151515815260200191505060405180910390f35b610b5460048036036020811015610b3e57600080fd5b810190808035906020019092919050505061356b565b604051808273ffffffffffffffffffffffffffffffffffffffff1673ffffffffffffffffffffffffffffffffffffffff16815260200191505060405180910390f35b610bd860048036036020811015610bac57600080fd5b81019080803573ffffffffffffffffffffffffffffffffffffffff16906020019092919050505061359e565b6040518080602001828103825283818151815260200191508051906020019060200280838360005b83811015610c1b578082015181840152602081019050610c00565b505050509050019250505060405180910390f35b610c7b60048036036040811015610c4557600080fd5b8101908080359060200190929190803573ffffffffffffffffffffffffffffffffffffffff1690602001909291905050506136ae565b604051808215151515815260200191505060405180910390f35b610de560048036036040811015610cab57600080fd5b8101908080359060200190640100000000811115610cc857600080fd5b820183602082011115610cda57600080fd5b80359060200191846001830284011164010000000083111715610cfc57600080fd5b91908080601f016020809104026020016040519081016040528093929190818152602001838380828437600081840152601f19601f82011690508083019250505050505050919291929080359060200190640100000000811115610d5f57600080fd5b820183602082011115610d7157600080fd5b80359060200191846001830284011164010000000083111715610d9357600080fd5b91908080601f016020809104026020016040519081016040528093929190818152602001838380828437600081840152601f19601f8201169050808301925050505050505091929192905050506137e5565b604051808215151515815260200191505060405180910390f35b610e4160048036036020811015610e1557600080fd5b81019080803573ffffffffffffffffffffffffffffffffffffffff169060200190929190505050613a7d565b6040518080602001828103825283818151815260200191508051906020019060200280838360005b83811015610e84578082015181840152602081019050610e69565b505050509050019250505060405180910390f35b610ec460048036036020811015610eae57600080fd5b8101908080359060200190929190505050613b8f565b604051808c81526020018b81526020018a81526020018981526020018881526020018781526020018681526020018581526020018481526020018373ffffffffffffffffffffffffffffffffffffffff1673ffffffffffffffffffffffffffffffffffffffff1681526020018281526020019b50505050505050505050505060405180910390f35b610f8e60048036036020811015610f6257600080fd5b81019080803573ffffffffffffffffffffffffffffffffffffffff169060200190929190505050613c09565b6040518082815260200191505060405180910390f35b610fac613c55565b604051808273ffffffffffffffffffffffffffffffffffffffff1673ffffffffffffffffffffffffffffffffffffffff16815260200191505060405180910390f35b6000803390506004600260003373ffffffffffffffffffffffffffffffffffffffff1673ffffffffffffffffffffffffffffffffffffffff16815260200190815260200160002060060181905550600191505090565b6000600260008373ffffffffffffffffffffffffffffffffffffffff1673ffffffffffffffffffffffffffffffffffffffff16815260200190815260200160002060070160009054906101000a900460ff169050919050565b6000803390506000600360008373ffffffffffffffffffffffffffffffffffffffff1673ffffffffffffffffffffffffffffffffffffffff1681526020019081526020016000206007015490506000600360008473ffffffffffffffffffffffffffffffffffffffff1673ffffffffffffffffffffffffffffffffffffffff1681526020019081526020016000206008015490506060806060846040519080825280602002602001820160405280156111655781602001602082028038833980820191505090505b509250836040519080825280602002602001820160405280156111975781602001602082028038833980820191505090505b509150846040519080825280602002602001820160405280156111c95781602001602082028038833980820191505090505b5090506000809050600080905060008090505b878110156113d857600060046000600360008d73ffffffffffffffffffffffffffffffffffffffff1673ffffffffffffffffffffffffffffffffffffffff168152602001908152602001600020600301848154811061123757fe5b9060005260206000200154815260200190815260200160002060050154141580156112d05750602860046000600360008d73ffffffffffffffffffffffffffffffffffffffff1673ffffffffffffffffffffffffffffffffffffffff16815260200190815260200160002060030184815481106112b057fe5b906000526020600020015481526020019081526020016000206006015410155b1561135257600360008a73ffffffffffffffffffffffffffffffffffffffff1673ffffffffffffffffffffffffffffffffffffffff168152602001908152602001600020600301818154811061132257fe5b906000526020600020015486848151811061133957fe5b60200260200101818152505082806001019350506113cb565b600360008a73ffffffffffffffffffffffffffffffffffffffff1673ffffffffffffffffffffffffffffffffffffffff168152602001908152602001600020600301818154811061139f57fe5b90600052602060002001548483815181106113b657fe5b60200260200101818152505081806001019250505b80806001019150506111dc565b5060008090505b8681101561146457600360008a73ffffffffffffffffffffffffffffffffffffffff1673ffffffffffffffffffffffffffffffffffffffff168152602001908152602001600020600401818154811061143457fe5b906000526020600020015485828151811061144b57fe5b60200260200101818152505080806001019150506113df565b50600080600080600193505b858410156115625760018403925088848151811061148a57fe5b60200260200101519050600460008a86815181106114a457fe5b602002602001015181526020019081526020016000206006015491505b600083101580156114fa575081600460008b86815181106114de57fe5b6020026020010151815260200190815260200160002060060154105b156115395788838151811061150b57fe5b602002602001015189600185018151811061152257fe5b6020026020010181815250506001830392506114c1565b8089600185018151811061154957fe5b6020026020010181815250508380600101945050611470565b600193505b898410156116595760018403925087848151811061158157fe5b602002602001015190506004600089868151811061159b57fe5b602002602001015181526020019081526020016000206006015491505b600083101580156115f1575081600460008a86815181106115d557fe5b6020026020010151815260200190815260200160002060060154105b156116305787838151811061160257fe5b602002602001015188600185018151811061161957fe5b6020026020010181815250506001830392506115b8565b8088600185018151811061164057fe5b6020026020010181815250508380600101945050611567565b60009350600092505b858410801561167057508983105b156119cf57600080600460008b878151811061168857fe5b60200260200101518152602001908152602001600020600601549150600460008c88815181106116b457fe5b60200260200101518152602001908152602001600020600601549050605082106117b257604f8110611786576117108b87815181106116ef57fe5b60200260200101518b878151811061170357fe5b6020026020010151612b35565b5060008b878151811061171f57fe5b602002602001015190508a868151811061173557fe5b60200260200101518c888151811061174957fe5b602002602001018181525050808b878151811061176257fe5b60200260200101818152505086806001019750508580600101965050505050611662565b6117a28a868151811061179557fe5b60200260200101516134dd565b5084806001019550505050611662565b603c82106118ab57605081106117d15785806001019650505050611662565b603b811061187f576118098b87815181106117e857fe5b60200260200101518b87815181106117fc57fe5b6020026020010151612b35565b5060008b878151811061181857fe5b602002602001015190508a868151811061182e57fe5b60200260200101518c888151811061184257fe5b602002602001018181525050808b878151811061185b57fe5b60200260200101818152505086806001019750508580600101965050505050611662565b61189b8a868151811061188e57fe5b60200260200101516134dd565b5084806001019550505050611662565b602882106119a257603c81106118ca5785806001019650505050611662565b60288110611978576119028b87815181106118e157fe5b60200260200101518b87815181106118f557fe5b6020026020010151612b35565b5060008b878151811061191157fe5b602002602001015190508a868151811061192757fe5b60200260200101518c888151811061193b57fe5b602002602001018181525050808b878151811061195457fe5b60200260200101818152505085806001019650508680600101975050505050611662565b6119948a868151811061198757fe5b60200260200101516134dd565b5084806001019550506119c8565b6119be8a86815181106119b157fe5b60200260200101516134dd565b5084806001019550505b5050611662565b5b89831015611a02576119f48884815181106119e757fe5b60200260200101516134dd565b5082806001019350506119d0565b600093505b85841015611a8b57888481518110611a1b57fe5b6020026020010151600360008e73ffffffffffffffffffffffffffffffffffffffff1673ffffffffffffffffffffffffffffffffffffffff1681526020019081526020016000206003018581548110611a7057fe5b90600052602060002001819055508380600101945050611a07565b8593505b8a841015611b15578686850381518110611aa557fe5b6020026020010151600360008e73ffffffffffffffffffffffffffffffffffffffff1673ffffffffffffffffffffffffffffffffffffffff1681526020019081526020016000206003018581548110611afa57fe5b90600052602060002001819055508380600101945050611a8f565b6000600360008e73ffffffffffffffffffffffffffffffffffffffff1673ffffffffffffffffffffffffffffffffffffffff1681526020019081526020016000206008018190555060019c5050505050505050505050505090565b6000600260008373ffffffffffffffffffffffffffffffffffffffff1673ffffffffffffffffffffffffffffffffffffffff168152602001908152602001600020600601549050919050565b600033600060016101000a81548173ffffffffffffffffffffffffffffffffffffffff021916908373ffffffffffffffffffffffffffffffffffffffff16021790555060016000806101000a81548160ff021916908315150217905550604051806101400160405280848152602001838152602001600060019054906101000a900473ffffffffffffffffffffffffffffffffffffffff1673ffffffffffffffffffffffffffffffffffffffff1681526020016064604051908082528060200260200182016040528015611c9f5781602001602082028038833980820191505090505b5081526020016064604051908082528060200260200182016040528015611cd55781602001602082028038833980820191505090505b5081526020016064604051908082528060200260200182016040528015611d0b5781602001602082028038833980820191505090505b50815260200160008152602001600081526020016000815260200160011515815250600360008060019054906101000a900473ffffffffffffffffffffffffffffffffffffffff1673ffffffffffffffffffffffffffffffffffffffff1673ffffffffffffffffffffffffffffffffffffffff1681526020019081526020016000206000820151816000019080519060200190611da9929190613c7b565b506020820151816001019080519060200190611dc6929190613c7b565b5060408201518160020160006101000a81548173ffffffffffffffffffffffffffffffffffffffff021916908373ffffffffffffffffffffffffffffffffffffffff1602179055506060820151816003019080519060200190611e2a929190613cfb565b506080820151816004019080519060200190611e47929190613cfb565b5060a0820151816005019080519060200190611e64929190613cfb565b5060c0820151816006015560e0820151816007015561010082015181600801556101208201518160090160006101000a81548160ff021916908315150217905550905050600060019054906101000a900473ffffffffffffffffffffffffffffffffffffffff1660056000600154815260200190815260200160002060006101000a81548173ffffffffffffffffffffffffffffffffffffffff021916908373ffffffffffffffffffffffffffffffffffffffff1602179055506001600081548092919060010191905055506001905092915050565b600060046000868152602001908152602001600020600301546004600087815260200190815260200160002060040154101580611fd957508173ffffffffffffffffffffffffffffffffffffffff166004600087815260200190815260200160002060090160009054906101000a900473ffffffffffffffffffffffffffffffffffffffff1673ffffffffffffffffffffffffffffffffffffffff1614155b15612003576000600460008781526020019081526020016000206006018190555060009050612159565b60646004600087815260200190815260200160002060050181905550826004600087815260200190815260200160002060080181905550600460008681526020019081526020016000206004016000815480929190600101919050555060006004600087815260200190815260200160002060040154905061012c8110156120c957600a60046000888152602001908152602001600020600401546103e803816120a957fe5b046004600088815260200190815260200160002060060181905550612153565b61012c81101580156120dc57506101a481105b1561210f576006816102d003816120ef57fe5b046004600088815260200190815260200160002060060181905550612152565b6101a48110158015612122575061021c81105b1561215157600c816103fc038161213557fe5b0460046000888152602001908152602001600020600601819055505b5b5b60019150505b949350505050565b6000809054906101000a900460ff1681565b6003602052806000526040600020600091509050806000018054600181600116156101000203166002900480601f01602080910402602001604051908101604052809291908181526020018280546001816001161561010002031660029004801561221f5780601f106121f45761010080835404028352916020019161221f565b820191906000526020600020905b81548152906001019060200180831161220257829003601f168201915b505050505090806001018054600181600116156101000203166002900480601f0160208091040260200160405190810160405280929190818152602001828054600181600116156101000203166002900480156122bd5780601f10612292576101008083540402835291602001916122bd565b820191906000526020600020905b8154815290600101906020018083116122a057829003601f168201915b5050505050908060020160009054906101000a900473ffffffffffffffffffffffffffffffffffffffff16908060060154908060070154908060080154908060090160009054906101000a900460ff16905087565b6000600154905090565b600033600060016101000a81548173ffffffffffffffffffffffffffffffffffffffff021916908373ffffffffffffffffffffffffffffffffffffffff1602179055508260046000858152602001908152602001600020600001541415806123e657508173ffffffffffffffffffffffffffffffffffffffff166004600085815260200190815260200160002060090160009054906101000a900473ffffffffffffffffffffffffffffffffffffffff1673ffffffffffffffffffffffffffffffffffffffff1614155b156123f45760009050612645565b60046000848152602001908152602001600020600080820160009055600182016000905560028201600090556003820160009055600482016000905560058201600090556006820160009055600782016000905560088201600090556009820160006101000a81549073ffffffffffffffffffffffffffffffffffffffff0219169055600a8201600090555050600260008060019054906101000a900473ffffffffffffffffffffffffffffffffffffffff1673ffffffffffffffffffffffffffffffffffffffff1673ffffffffffffffffffffffffffffffffffffffff16815260200190815260200160002060020160009054906101000a900473ffffffffffffffffffffffffffffffffffffffff1673ffffffffffffffffffffffffffffffffffffffff16600060019054906101000a900473ffffffffffffffffffffffffffffffffffffffff1673ffffffffffffffffffffffffffffffffffffffff161415612640576000600260008060019054906101000a900473ffffffffffffffffffffffffffffffffffffffff1673ffffffffffffffffffffffffffffffffffffffff1673ffffffffffffffffffffffffffffffffffffffff16815260200190815260200160002060050160006101000a81548160ff0219169083151502179055506000600260008060019054906101000a900473ffffffffffffffffffffffffffffffffffffffff1673ffffffffffffffffffffffffffffffffffffffff1673ffffffffffffffffffffffffffffffffffffffff168152602001908152602001600020600301819055505b600190505b92915050565b6000600360008373ffffffffffffffffffffffffffffffffffffffff1673ffffffffffffffffffffffffffffffffffffffff16815260200190815260200160002060090160009054906101000a900460ff169050919050565b6002602052806000526040600020600091509050806000018054600181600116156101000203166002900480601f0160208091040260200160405190810160405280929190818152602001828054600181600116156101000203166002900480156127505780601f1061272557610100808354040283529160200191612750565b820191906000526020600020905b81548152906001019060200180831161273357829003601f168201915b505050505090806001018054600181600116156101000203166002900480601f0160208091040260200160405190810160405280929190818152602001828054600181600116156101000203166002900480156127ee5780601f106127c3576101008083540402835291602001916127ee565b820191906000526020600020905b8154815290600101906020018083116127d157829003601f168201915b5050505050908060020160009054906101000a900473ffffffffffffffffffffffffffffffffffffffff16908060030154908060040154908060050160009054906101000a900460ff16908060060154908060070160009054906101000a900460ff16908060080154908060090160009054906101000a900473ffffffffffffffffffffffffffffffffffffffff1690508a565b6000600360008373ffffffffffffffffffffffffffffffffffffffff1673ffffffffffffffffffffffffffffffffffffffff168152602001908152602001600020600701549050919050565b600033600060016101000a81548173ffffffffffffffffffffffffffffffffffffffff021916908373ffffffffffffffffffffffffffffffffffffffff1602179055506000600360008473ffffffffffffffffffffffffffffffffffffffff1673ffffffffffffffffffffffffffffffffffffffff168152602001908152602001600020600801549050600260008060019054906101000a900473ffffffffffffffffffffffffffffffffffffffff1673ffffffffffffffffffffffffffffffffffffffff1673ffffffffffffffffffffffffffffffffffffffff16815260200190815260200160002060030154600360008573ffffffffffffffffffffffffffffffffffffffff1673ffffffffffffffffffffffffffffffffffffffff1681526020019081526020016000206004018281548110612a0957fe5b9060005260206000200181905550600360008473ffffffffffffffffffffffffffffffffffffffff1673ffffffffffffffffffffffffffffffffffffffff168152602001908152602001600020600801600081548092919060010191905055506001600260008060019054906101000a900473ffffffffffffffffffffffffffffffffffffffff1673ffffffffffffffffffffffffffffffffffffffff1673ffffffffffffffffffffffffffffffffffffffff168152602001908152602001600020600601819055506001915050919050565b6000600260008373ffffffffffffffffffffffffffffffffffffffff1673ffffffffffffffffffffffffffffffffffffffff16815260200190815260200160002060050160009054906101000a900460ff169050919050565b6000806004600085815260200190815260200160002060090160009054906101000a900473ffffffffffffffffffffffffffffffffffffffff16905060006004600085815260200190815260200160002060090160009054906101000a900473ffffffffffffffffffffffffffffffffffffffff169050806004600087815260200190815260200160002060090160006101000a81548173ffffffffffffffffffffffffffffffffffffffff021916908373ffffffffffffffffffffffffffffffffffffffff1602179055508360046000878152602001908152602001600020600a0181905550816004600086815260200190815260200160002060090160006101000a81548173ffffffffffffffffffffffffffffffffffffffff021916908373ffffffffffffffffffffffffffffffffffffffff1602179055508460046000868152602001908152602001600020600a018190555060028060008373ffffffffffffffffffffffffffffffffffffffff1673ffffffffffffffffffffffffffffffffffffffff1681526020019081526020016000206006018190555084600260008373ffffffffffffffffffffffffffffffffffffffff1673ffffffffffffffffffffffffffffffffffffffff1681526020019081526020016000206003018190555060046000858152602001908152602001600020600601546004600087815260200190815260200160002060060154036014026101f401600260008373ffffffffffffffffffffffffffffffffffffffff1673ffffffffffffffffffffffffffffffffffffffff1681526020019081526020016000206008018190555060046000858152602001908152602001600020600601546004600087815260200190815260200160002060060154036014026101f401600460008681526020019081526020016000206007018190555081600260008373ffffffffffffffffffffffffffffffffffffffff1673ffffffffffffffffffffffffffffffffffffffff16815260200190815260200160002060090160006101000a81548173ffffffffffffffffffffffffffffffffffffffff021916908373ffffffffffffffffffffffffffffffffffffffff16021790555060019250505092915050565b606080600154604051908082528060200260200182016040528015612ea75781602001602082028038833980820191505090505b50915060008090505b600154811015612f41576005600082815260200190815260200160002060009054906101000a900473ffffffffffffffffffffffffffffffffffffffff16838281518110612efa57fe5b602002602001019073ffffffffffffffffffffffffffffffffffffffff16908173ffffffffffffffffffffffffffffffffffffffff16815250508080600101915050612eb0565b508191505090565b600033600060016101000a81548173ffffffffffffffffffffffffffffffffffffffff021916908373ffffffffffffffffffffffffffffffffffffffff160217905550600260008060019054906101000a900473ffffffffffffffffffffffffffffffffffffffff1673ffffffffffffffffffffffffffffffffffffffff1673ffffffffffffffffffffffffffffffffffffffff16815260200190815260200160002060020160009054906101000a900473ffffffffffffffffffffffffffffffffffffffff1673ffffffffffffffffffffffffffffffffffffffff16600060019054906101000a900473ffffffffffffffffffffffffffffffffffffffff1673ffffffffffffffffffffffffffffffffffffffff16141561314e576001600260008060019054906101000a900473ffffffffffffffffffffffffffffffffffffffff1673ffffffffffffffffffffffffffffffffffffffff1673ffffffffffffffffffffffffffffffffffffffff16815260200190815260200160002060050160006101000a81548160ff02191690831515021790555083600260008060019054906101000a900473ffffffffffffffffffffffffffffffffffffffff1673ffffffffffffffffffffffffffffffffffffffff1673ffffffffffffffffffffffffffffffffffffffff16815260200190815260200160002060030181905550613382565b600360008060019054906101000a900473ffffffffffffffffffffffffffffffffffffffff1673ffffffffffffffffffffffffffffffffffffffff1673ffffffffffffffffffffffffffffffffffffffff16815260200190815260200160002060020160009054906101000a900473ffffffffffffffffffffffffffffffffffffffff1673ffffffffffffffffffffffffffffffffffffffff16600060019054906101000a900473ffffffffffffffffffffffffffffffffffffffff1673ffffffffffffffffffffffffffffffffffffffff161415613381576000600360008060019054906101000a900473ffffffffffffffffffffffffffffffffffffffff1673ffffffffffffffffffffffffffffffffffffffff1673ffffffffffffffffffffffffffffffffffffffff16815260200190815260200160002060070154905084600360008060019054906101000a900473ffffffffffffffffffffffffffffffffffffffff1673ffffffffffffffffffffffffffffffffffffffff1673ffffffffffffffffffffffffffffffffffffffff16815260200190815260200160002060030182815481106132fe57fe5b9060005260206000200181905550600360008060019054906101000a900473ffffffffffffffffffffffffffffffffffffffff1673ffffffffffffffffffffffffffffffffffffffff1673ffffffffffffffffffffffffffffffffffffffff16815260200190815260200160002060070160008154809291906001019190505550505b5b60405180610160016040528085815260200183815260200184815260200161021c81526020016000815260200160648152602001606481526020016000815260200160008152602001600060019054906101000a900473ffffffffffffffffffffffffffffffffffffffff1673ffffffffffffffffffffffffffffffffffffffff168152602001600081525060046000868152602001908152602001600020600082015181600001556020820151816001015560408201518160020155606082015181600301556080820151816004015560a0820151816005015560c0820151816006015560e0820151816007015561010082015181600801556101208201518160090160006101000a81548173ffffffffffffffffffffffffffffffffffffffff021916908373ffffffffffffffffffffffffffffffffffffffff16021790555061014082015181600a0155905050600190509392505050565b6000806004600084815260200190815260200160002060090160009054906101000a900473ffffffffffffffffffffffffffffffffffffffff1690506003600260008373ffffffffffffffffffffffffffffffffffffffff1673ffffffffffffffffffffffffffffffffffffffff168152602001908152602001600020600601819055506001915050919050565b60056020528060005260406000206000915054906101000a900473ffffffffffffffffffffffffffffffffffffffff1681565b60606000600360008473ffffffffffffffffffffffffffffffffffffffff1673ffffffffffffffffffffffffffffffffffffffff168152602001908152602001600020600801549050806040519080825280602002602001820160405280156136165781602001602082028038833980820191505090505b50915060008090505b818110156136a457600360008573ffffffffffffffffffffffffffffffffffffffff1673ffffffffffffffffffffffffffffffffffffffff168152602001908152602001600020600401818154811061367457fe5b906000526020600020015483828151811061368b57fe5b602002602001018181525050808060010191505061361f565b5081915050919050565b6000600460008481526020019081526020016000206003015460046000858152602001908152602001600020600401541015806137435750600260008373ffffffffffffffffffffffffffffffffffffffff1673ffffffffffffffffffffffffffffffffffffffff16815260200190815260200160002060030154600460008581526020019081526020016000206000015414155b806137b057508173ffffffffffffffffffffffffffffffffffffffff166004600085815260200190815260200160002060090160009054906101000a900473ffffffffffffffffffffffffffffffffffffffff1673ffffffffffffffffffffffffffffffffffffffff1614155b156137be57600090506137df565b60006004600085815260200190815260200160002060050181905550600190505b92915050565b60006137f033611044565b156137fe5760009050613a77565b33600060016101000a81548173ffffffffffffffffffffffffffffffffffffffff021916908373ffffffffffffffffffffffffffffffffffffffff160217905550604051806101400160405280848152602001838152602001600060019054906101000a900473ffffffffffffffffffffffffffffffffffffffff1673ffffffffffffffffffffffffffffffffffffffff168152602001600081526020016000815260200160001515815260200160048152602001600115158152602001600081526020013373ffffffffffffffffffffffffffffffffffffffff16815250600260008060019054906101000a900473ffffffffffffffffffffffffffffffffffffffff1673ffffffffffffffffffffffffffffffffffffffff1673ffffffffffffffffffffffffffffffffffffffff1681526020019081526020016000206000820151816000019080519060200190613959929190613c7b565b506020820151816001019080519060200190613976929190613c7b565b5060408201518160020160006101000a81548173ffffffffffffffffffffffffffffffffffffffff021916908373ffffffffffffffffffffffffffffffffffffffff160217905550606082015181600301556080820151816004015560a08201518160050160006101000a81548160ff02191690831515021790555060c0820151816006015560e08201518160070160006101000a81548160ff02191690831515021790555061010082015181600801556101208201518160090160006101000a81548173ffffffffffffffffffffffffffffffffffffffff021916908373ffffffffffffffffffffffffffffffffffffffff160217905550905050600190505b92915050565b6060806000600360008573ffffffffffffffffffffffffffffffffffffffff1673ffffffffffffffffffffffffffffffffffffffff16815260200190815260200160002060070154905080604051908082528060200260200182016040528015613af65781602001602082028038833980820191505090505b50925060008090505b81811015613b8457600360008673ffffffffffffffffffffffffffffffffffffffff1673ffffffffffffffffffffffffffffffffffffffff1681526020019081526020016000206003018181548110613b5457fe5b9060005260206000200154848281518110613b6b57fe5b6020026020010181815250508080600101915050613aff565b508292505050919050565b60046020528060005260406000206000915090508060000154908060010154908060020154908060030154908060040154908060050154908060060154908060070154908060080154908060090160009054906101000a900473ffffffffffffffffffffffffffffffffffffffff169080600a015490508b565b6000600360008373ffffffffffffffffffffffffffffffffffffffff1673ffffffffffffffffffffffffffffffffffffffff168152602001908152602001600020600801549050919050565b600060019054906101000a900473ffffffffffffffffffffffffffffffffffffffff1681565b828054600181600116156101000203166002900490600052602060002090601f016020900481019282601f10613cbc57805160ff1916838001178555613cea565b82800160010185558215613cea579182015b82811115613ce9578251825591602001919060010190613cce565b5b509050613cf79190613d48565b5090565b828054828255906000526020600020908101928215613d37579160200282015b82811115613d36578251825591602001919060010190613d1b565b5b509050613d449190613d48565b5090565b613d6a91905b80821115613d66576000816000905550600101613d4e565b5090565b9056fea265627a7a72315820fe01fb1fe5d3b79dc9334709066c9ad5223164fcfe11c119747ed7602ce3849664736f6c63430005100032",
  "source": "pragma solidity >=0.4.22 <0.6.0;\r\n\r\ncontract BatterySwap\r\n{\r\n\tstruct Battery\r\n    {\r\n        uint id;\r\n        uint capacity;\r\n        uint year;\r\n        uint maxCycles;\r\n        uint cycles;\r\n        uint soc;\r\n        uint soh;\r\n        uint price;\r\n        uint rate;\r\n        address owner;\r\n\t\tuint swapID;\r\n    }\r\n    struct EVOwner\r\n    {\r\n        string name;\r\n        string addres;\r\n        address account;\r\n\t\tuint idx;//id of battery owned by ev owner\r\n        uint bal;\r\n\t\tbool bat;\r\n\t\tuint reqStatus; //1 for requested,4 for not req, 2 for ACCEPTED, 3 for REJECTED\r\n        bool exist;\r\n        uint256 balance;\r\n        address csowner;\r\n    }\r\n    struct CSOwner\r\n    {\r\n        string name;\r\n        string addres;\r\n        address account;\r\n\t\tuint[] idx; //array of batteries owned by the station\r\n\t\tuint[] ids; //array of pending requests\r\n        uint[] uncharged;//array of uncharged batteries\r\n        uint r;//number of uncharged batteries\r\n        uint i; //number of batteries owned\r\n\t\tuint j; //number of pending requests\r\n        bool exist;\r\n    }\r\n    bool public adminDone=false;\r\n    address public admin;\r\n    uint stationCount=0;\r\n    mapping(address=>EVOwner) public EV;\r\n    mapping(address=>CSOwner) public CS; \r\n    mapping(uint=>Battery) public battery;\r\n\tmapping(uint=>address) public station;\r\n\tfunction batExists(address x) public view returns (bool)\r\n    {\r\n        return EV[x].bat;\r\n    }\r\n    function userExists(address x) public view returns (bool)\r\n    {\r\n        return EV[x].exist;\r\n    }\r\n    function CSExists(address x) public view returns (bool)\r\n    {\r\n        return CS[x].exist;\r\n    }\r\n    //register EV Owner\r\n    function makeadmin(string memory nname,string memory aaddress) public returns (bool)\r\n    {\r\n        if(userExists(msg.sender))return false;\r\n        admin=msg.sender;\r\n        EV[admin]=EVOwner({\r\n            name: nname,\r\n            addres: aaddress,\r\n            account: admin,\r\n\t\t\tidx:0,\r\n            bal:0,\r\n\t\t\tbat:false,\r\n\t\t\treqStatus:4,\r\n            exist: true,\r\n            balance:0,\r\n            csowner: msg.sender\r\n        });\r\n        return true;\r\n    }\r\n    //register company owner\r\n    function makeCS(string memory nname,string memory aaddress) public returns (bool)\r\n    {\r\n        //if(CSExists(msg.sender))return false;\r\n        admin=msg.sender;\r\n        adminDone=true;\r\n        CS[admin]=CSOwner({\r\n            name: nname,\r\n            addres: aaddress,\r\n            account: admin,\r\n\t\t\tidx:new uint[](100),\r\n\t\t\tids:new uint[](100),\r\n            uncharged:new uint[](100),\r\n            r:0,\r\n            i:0,\r\n\t\t\tj:0,\r\n            exist: true\r\n        });\r\n\t\tstation[stationCount]=admin;\r\n\t\tstationCount++;\r\n        return true;\r\n    }\r\n    //register a battery\r\n    function registerBattery(uint idd,uint yyear,uint ccap) public returns (bool)\r\n    {\r\n        admin=msg.sender;\r\n\t\tif(admin==EV[admin].account)\r\n\t\t{\r\n\t\t\tEV[admin].bat=true;\r\n\t\t\tEV[admin].idx=idd;\r\n\t\t}\r\n\t\telse if(admin==CS[admin].account)\r\n\t\t{\r\n\t\t\tuint k=CS[admin].i;\r\n\t\t\tCS[admin].idx[k]=idd;\r\n\t\t\tCS[admin].i++;\r\n\t\t}\r\n        battery[idd]=Battery({\r\n            id:idd,\r\n            capacity:ccap,\r\n            year:yyear,\r\n            maxCycles:540,\r\n            cycles:0,\r\n            soc:100,\r\n            soh:100,\r\n            price:0,\r\n            rate:0,\r\n            owner:admin,\r\n\t\t\tswapID:0\r\n        });\r\n        return true;\r\n    }\r\n    //charge a battery\r\n    function chargeBattery(uint idd,uint csoc,uint cr,address add) public returns (bool)\r\n    {\r\n        if(battery[idd].cycles>=battery[idd].maxCycles || battery[idd].owner!=add)\r\n        {\r\n            battery[idd].soh=0;\r\n            return false;\r\n        }\r\n        battery[idd].soc=100;\r\n        battery[idd].rate=cr;\r\n        battery[idd].cycles++;\r\n        uint k=battery[idd].cycles;\r\n        if(k<300)\r\n        {\r\n            battery[idd].soh=(1000-battery[idd].cycles)/10;\r\n        }\r\n        else if(k>=300 && k<420)\r\n        {\r\n            battery[idd].soh=(720-k)/6;\r\n        }\r\n        else if(k>=420 && k<540)\r\n        {\r\n            battery[idd].soh=(1020-k)/12;\r\n        }\r\n        return true;\r\n    }\r\n    //discharge a battery\r\n    function dischargeBattery(uint idd,address add) public returns (bool)\r\n    {\r\n        if(battery[idd].cycles>=battery[idd].maxCycles || battery[idd].id!=EV[add].idx || battery[idd].owner!=add)\r\n        return false;\r\n        battery[idd].soc=0;\r\n        return true;\r\n    }\r\n    //delete a battery\r\n    function deleteBattery(uint idd,address add) public returns (bool)\r\n    {\r\n        admin=msg.sender;\r\n        if(battery[idd].id!=idd || battery[idd].owner!=add)\r\n\t\treturn false;\r\n\t\tdelete battery[idd];\r\n\t\tif(admin==EV[admin].account)\r\n\t\t{\r\n\t\t\tEV[admin].bat=false;\r\n\t\t\tEV[admin].idx=0;\r\n\t\t}\r\n        return true;\r\n    }\r\n\t//returns array of station addresses\r\n\tfunction statList() public returns (address [] memory temp)\r\n\t{\r\n\t\taddress[] memory tempAd;\r\n\t\ttemp=new address[](stationCount);\r\n\t\tfor(uint i=0;i<stationCount;i++)\r\n\t\t{\r\n\t\t\ttemp[i]=station[i];\r\n\t\t}\r\n\t\treturn temp;\r\n\t}\r\n\t//returns station stationCount\r\n\tfunction statCount() public returns (uint)\r\n\t{\r\n        return stationCount;\r\n\t}\r\n\t//sends swapping request\r\n\tfunction sendRequest(address s) public returns (bool)\r\n\t{\r\n\t\tadmin=msg.sender;\r\n\t\tuint y=CS[s].j;   //number of pending requests\r\n\t\tCS[s].ids[y]=EV[admin].idx;\r\n\t\tCS[s].j++;\r\n\t\tEV[admin].reqStatus=1;\r\n\t\treturn true;\r\n\t}\r\n\t//returns requested status(returns -1 for NOTREQUESTED,1 for REQUESTED,2 for ACCEPTED,3 for REJECTED)\r\n\tfunction sendStatus(address s) public returns (uint)\r\n\t{\r\n\t\treturn EV[s].reqStatus;\r\n\t}\r\n    //returns array of battery ids owned\r\n    function batList(address s) public returns (uint [] memory temp)\r\n\t{\r\n        uint[] memory tempAd;\r\n        uint k=CS[s].i;\r\n\t\ttemp=new uint[](k);\r\n\t\tfor(uint i=0;i<k;i++)\r\n\t\t{\r\n\t\t\ttemp[i]=CS[s].idx[i];\r\n\t\t}\r\n\t\treturn temp;\r\n\t}\r\n    //returns number of batteries owned\r\n    function batCount(address s) public returns (uint)\r\n    {\r\n        return CS[s].i;\r\n    }\r\n    function reqList(address s) public returns (uint [] memory temp)\r\n\t{\r\n        //address s=msg.sender;\r\n        uint k=CS[s].j;\r\n\t\ttemp=new uint[](k);\r\n\t\tfor(uint i=0;i<k;i++)\r\n\t\t{\r\n\t\t\ttemp[i]=CS[s].ids[i];\r\n\t\t}\r\n\t\treturn temp;\r\n\t}\r\n    function reqCount(address s) public returns (uint){\r\n        return CS[s].j;\r\n    }\r\n    function swapBat(uint stat,uint veh) public returns (bool){\r\n        address statad=battery[stat].owner;\r\n        address vehad=battery[veh].owner;\r\n        battery[stat].owner=vehad;\r\n        battery[stat].swapID=veh;\r\n        battery[veh].owner=statad;\r\n        battery[veh].swapID=stat;\r\n        EV[vehad].reqStatus=2;\r\n        EV[vehad].idx=stat;\r\n        EV[vehad].balance=500+20*(battery[stat].soh-battery[veh].soh);\r\n        battery[veh].price=500+20*(battery[stat].soh-battery[veh].soh);\r\n        EV[vehad].csowner=statad;\r\n        return true;\r\n    }\r\n    function reject(uint id1) public returns (bool){\r\n        address adx=battery[id1].owner;\r\n        EV[adx].reqStatus=3;\r\n        return true;\r\n    }\r\n    function changeStatus() public returns (bool){\r\n        address evowner=msg.sender;\r\n        EV[msg.sender].reqStatus=4;\r\n        return true;\r\n    }\r\n    function swapping() public returns (bool)\r\n    {\r\n        address stat=msg.sender;\r\n        uint a=CS[stat].i;\r\n        uint b=CS[stat].j;//number of pending requests\r\n        uint[] memory avail;\r\n        uint[] memory pend;\r\n        uint[] memory disc;\r\n        avail=new uint[](a);\r\n        pend=new uint[](b);\r\n        disc=new uint[](a);\r\n        uint p=0;//number of batteries available for swapping\r\n        uint q=0;//number of batteries which are not available for swapping\r\n        for(uint i=0;i<a;i++){\r\n            if(battery[CS[stat].idx[i]].soc!=0 && battery[CS[stat].idx[i]].soh>=40){\r\n                avail[p]=CS[stat].idx[i];\r\n                p++;\r\n            }\r\n            else{\r\n                disc[q]=CS[stat].idx[i];\r\n                q++;\r\n            }\r\n        }\r\n        for(uint i=0;i<b;i++){\r\n            pend[i]=CS[stat].ids[i];\r\n        }\r\n        uint i;uint j;uint key;uint cur_id;\r\n        //sorting avail array\r\n        for(i=1;i<p;i++){\r\n            j=i-1;\r\n            cur_id=avail[i];\r\n            key=battery[avail[i]].soh;\r\n            while(j>=0 && battery[avail[j]].soh<key){\r\n                avail[j+1]=avail[j];\r\n                j=j-1;\r\n            }\r\n            avail[j+1]=cur_id;\r\n        }\r\n        //sorting pend array\r\n        for(i=1;i<b;i++){\r\n            j=i-1;\r\n            cur_id=pend[i];\r\n            key=battery[pend[i]].soh;\r\n            while(j>=0 && battery[pend[j]].soh<key){\r\n                pend[j+1]=pend[j];\r\n                j=j-1;\r\n            }\r\n            pend[j+1]=cur_id;\r\n        }\r\n        i=0;\r\n        j=0;\r\n        while(i<p && j<b){\r\n            uint psoh;uint asoh;\r\n            psoh=battery[pend[j]].soh;\r\n            asoh=battery[avail[i]].soh;\r\n            if(psoh>=80){\r\n                if(asoh>=79){\r\n                    //swap\r\n                    swapBat(avail[i],pend[j]);\r\n                    uint x=avail[i];\r\n                    avail[i]=pend[j];\r\n                    pend[j]=x;\r\n                    i++;\r\n                    j++;\r\n                    continue;\r\n                }\r\n                else{\r\n                    //rejected\r\n                    reject(pend[j]);\r\n                    j++;\r\n                    continue;\r\n                }\r\n            }\r\n            else if(psoh>=60){\r\n                if(asoh>=80){\r\n                    i++;\r\n                    continue;\r\n                }\r\n                else if(asoh>=59){\r\n                    //swap\r\n                    swapBat(avail[i],pend[j]);\r\n                    uint x=avail[i];\r\n                    avail[i]=pend[j];\r\n                    pend[j]=x;\r\n                    i++;\r\n                    j++;\r\n                    continue;\r\n                }\r\n                else{\r\n                    //rejected\r\n                    reject(pend[j]);\r\n                    j++;\r\n                    continue;\r\n                }\r\n            }\r\n            else if(psoh>=40){\r\n                if(asoh>=60){\r\n                    i++;\r\n                    continue;\r\n                }\r\n                else if(asoh>=40){\r\n                    //swap\r\n                    swapBat(avail[i],pend[j]);\r\n                    uint x=avail[i];\r\n                    avail[i]=pend[j];\r\n                    pend[j]=x;\r\n                    j++;\r\n                    i++;\r\n                    continue;\r\n                }\r\n                else{\r\n                    //rejected\r\n                    reject(pend[j]);\r\n                    j++;\r\n                }\r\n            }\r\n            else{\r\n                //rejected\r\n                reject(pend[j]);\r\n                j++;\r\n            }\r\n        }\r\n        while(j<b){\r\n            reject(pend[j]);\r\n            j++;\r\n        }\r\n        for(i=0;i<p;i++){\r\n            CS[stat].idx[i]=avail[i];\r\n        }\r\n        for(i=p;i<a;i++){\r\n            CS[stat].idx[i]=disc[i-p];\r\n        }\r\n        CS[stat].j=0;\r\n        return true;\r\n    }\r\n}",
  "sourcePath": "/home/rohan/innovation lab/Metacoin/contracts/BatterySwap.sol",
  "compiler": {
    "name": "solc",
    "version": "0.5.16+commit.9c3226ce.Emscripten.clang"
  },
  "schemaVersion": "3.3.3",
  "updatedAt": "2021-05-13T14:51:26.327Z",
  "networkType": "ethereum",
  "devdoc": {
    "methods": {}
  },
  "userdoc": {
    "methods": {}
  }
}